:100000000C944C000C9498040C941A040C94430522
:100010000C946D000C946B000C946B000C946B00B2
:100020000C946B000C946B000C946B000C946B00A4
:100030000C946B000C946B000C946B000C946B0094
:100040000C946B000C946B000C946B000C946B0084
:100050000C946B000C946B000C946B000C946B0074
:100060000C946B000C946B000C946B000C946B0064
:100070000C946B000C94CC040C946B000C946B00EF
:100080000C948B000C946B000C946B000C946B0024
:100090000C946B000C946B0011241FBECFEFD0E2C8
:1000A000DEBFCDBF11E0A0E0B1E0E6E3F3E100E0A8
:1000B0000BBF02C007900D92A434B107D9F711E02D
:1000C000A4E4B1E001C01D92A837B107E1F70E9496
:1000D00097050C9499090C949F001F920F920FB6EC
:1000E0000F9211248F939F934B9B0EC088E082B98F
:1000F00080ED97E090932D0180932C0180917A0000
:10010000806480937A00EB989F918F910F900FBE3F
:100110000F901F9018951F920F920FB60F921124F7
:100120008F939F9381E090E09093510180935001D1
:100130009F918F910F900FBE0F901F9018951F9257
:100140000F920FB60F9211248F938AEA82B9FECFD5
:100150008DB38F608DBBE9E6F0E080818C7F80837A
:100160008081806280838081806C8083089584B5E3
:10017000836884BD82E085BD80E487BD0895F894DE
:10018000AAE7B0E08C9180688C93ECE7F0E0808186
:10019000806480838081816080838C9188608C936F
:1001A00078940895672B11F080EF05C0892B11F02A
:1001B00084EF01C088EF85B908959C01809181008A
:1001C00081608093810080918100886080938100AC
:1001D00088EE93E0909389008093880010928500C8
:1001E00010928400B19A80E090E004C0B19BFECFF1
:1001F000B19A019682179307CCF3809181008E7F8C
:100200008093810008952F923F924F925F926F9258
:100210007F928F929F92AF92BF92CF92DF92EF9296
:10022000FF920F931F93CF93DF937B018A01892B5A
:10023000B9F4C0E0D0E035E0232E24E0622E712C2A
:1002400090E3392E81E0882E912CB6E04B2EA2E06F
:10025000AA2EB12CF8E25F2EE3E0CE2ED12C81C085
:10026000C0E0D0E075E0272E64E0662E712C58E2E5
:10027000352E43E0842E912C36E0432E22E0A22E30
:10028000B12C90E3592E81E0C82ED12C33C080913F
:10029000340190913501049731F45EB8D092350164
:1002A000C092340123C080913401909135010197AF
:1002B00031F44EB8B0923501A092340117C080914C
:1002C000340190913501029731F43EB89092350196
:1002D000809234010BC080913401909135010397D5
:1002E00029F42EB87092350160923401C8010E9441
:1002F000DD002196CE15DF0554F236C08091340121
:1003000090913501049731F45EB8D0923501C092D6
:10031000340123C08091340190913501039731F469
:100320004EB8B0923501A092340117C080913401CB
:1003300090913501029731F43EB890923501809248
:1003400034010BC08091340190913501019729F45B
:100350002EB87092350160923401C8010E94DD0010
:100360002196CE15DF0554F2DF91CF911F910F91A9
:10037000FF90EF90DF90CF90BF90AF909F908F90C5
:100380007F906F905F904F903F902F9008950F93C4
:100390001F938C0161E070E048E050E00E9403018F
:1003A000C80161E070E049E050E00E940301C8012B
:1003B00061E070E04AE050E00E940301C80161E0A2
:1003C00070E04BE050E00E940301C80161E070E082
:1003D0004DE050E00E940301C80161E070E040E19F
:1003E00050E00E940301C80161E070E043E150E089
:1003F0000E940301C80161E070E044E150E00E9406
:1004000003011F910F9108950F931F938C0161E0D9
:1004100070E044E150E00E940301C80161E070E037
:1004200043E150E00E940301C80161E070E040E157
:1004300050E00E940301C80161E070E04DE050E02F
:100440000E940301C80161E070E04BE050E00E94AF
:100450000301C80161E070E04AE050E00E9403013E
:10046000C80161E070E049E050E00E940301C8016A
:1004700061E070E048E050E00E9403011F910F919D
:100480000895E0917001F09171010190F081E02DEB
:1004900080916C0190916D01892B09F043C080918E
:1004A0003C0190913D01E817F90748F481E090E0A4
:1004B0000E94040260916A0170916B01ABC080914F
:1004C0003A0190913B01E817F90798F480E090E039
:1004D0000E94040260916A0170916B0140913601A3
:1004E0005091370180E090E00E94030180E090E0AD
:1004F0001AC18091380190913901E817F90748F441
:1005000081E090E00E9404026091680170916901AD
:100510002CC18091380190913901E817F90708F44E
:100520006CC1C5C020916C0130916D012130310545
:1005300009F059C080913C0190913D01E817F907FD
:1005400028F580E090E00E94040260916A017091B9
:100550006B01409136015091370180E090E00E949C
:10056000030180E090E00E94C70183E090E0909357
:100570006D0180936C0180916401909165010196F9
:10058000909365018093640188E00BC180913A01EA
:1005900090913B01E817F90748F481E090E00E9450
:1005A000040260916A0170916B01B3C080913801BF
:1005B00090913901E817F90728F430936D012093E1
:1005C0006C01E5C08091380190913901E817F90775
:1005D00008F413C181E090E00E9404026091680178
:1005E0007091690158C020916C0130916D012230E9
:1005F000310509F06BC080913C0190913D01E817F5
:10060000F90798F481E090E00E940402609168018B
:1006100070916901409136015091370181E090E07D
:100620000E94030181E090E09ECF80913A01909179
:100630003B01E817F90728F430936D0120936C0112
:100640007AC08091380190913901E817F90798F440
:1006500080E090E00E94040260916A0170916B0159
:10066000409136015091370180E090E00E940301F3
:1006700080E090E084C08091380190913901E817C2
:10068000F90708F4BAC081E090E00E94040260918A
:100690006A0170916B01409136015091370181E000
:1006A00090E00E94030181E090E00E94C701109257
:1006B0006D0110926C0180915E0190915F01019635
:1006C00090935F0180935E0181E06BC020916C018B
:1006D00030916D012330310509F08FC080913C01CC
:1006E00090913D01E817F90728F430936D012093AC
:1006F0006C0141CF80913A0190913B01E817F907D5
:1007000028F581E090E00E940402609168017091F8
:100710006901409136015091370181E090E00E94DB
:10072000030181E090E00E94C70182E090E0909395
:100730006D0180936C01809162019091630101963B
:10074000909363018093620184E02BC08091380113
:1007500090913901E817F90730F581E090E00E94A7
:10076000040260916A0170916B01409136015091D1
:10077000370181E090E00E94030181E090E00E9457
:10078000C70181E090E090936D0180936C018091AE
:1007900060019091610101969093610180936001E5
:1007A00082E082B908958091380190913901E8176B
:1007B000F90718F180E090E00E94040260916A015C
:1007C00070916B01409136015091370180E090E0CB
:1007D0000E94030180E090E00E94C70110926D0129
:1007E00010926C0180915E0190915F01019690934F
:1007F0005F0180935E0181E082B90895CF93DF931A
:10080000C0E0D0E04E9907C080E482B910926D013B
:1008100010926C010CC081E090E061E070E044E176
:1008200050E00E9403012196C93CD10559F7DF91A0
:10083000CF9108951F920F920FB60F920BB60F92A1
:1008400011242F933F934F935F936F937F938F93D5
:100850009F93AF93BF93EF93FF9380915401909137
:10086000550181309105A9F4909353018093520171
:1008700090934901809348011092550110925401C0
:1008800080EC82B980E090E061E070E00E94D200EC
:1008900015C08091540190915501892B79F41092E3
:1008A00053011092520181E090E0909355018093A2
:1008B000540180E382B902C082B901C08FE0499B34
:1008C000FBCF84EF91E00E94DD00E19A8091560118
:1008D0009091570101969093570180935601FF9193
:1008E000EF91BF91AF919F918F917F916F915F91A8
:1008F0004F913F912F910F900BBE0F900FBE0F9015
:100900001F901895E1E9F0E080818D608083E1E738
:10091000F0E08081826080831092950010929400B4
:1009200081EA97E09093990080939800C19A089586
:100930001F920F920FB60F920BB60F9211242F93A6
:100940003F934F935F936F937F938F939F93AF9357
:10095000BF93EF93FF93489BFECF0E948204E898D9
:10096000809158019091590101969093590180937B
:100970005801FF91EF91BF91AF919F918F917F911E
:100980006F915F914F913F912F910F900BBE0F9000
:100990000FBE0F901F9018951F920F920FB60F92D7
:1009A0000BB60F9211242F933F934F935F936F9346
:1009B0007F938F939F93AF93BF93EF93FF93809118
:1009C000780090917900909367018093660120915F
:1009D00066013091670180912C0190912D012817BB
:1009E000390740F4809166019091670190932D0141
:1009F00080932C014B9907C080914601909147014B
:100A00008757914080F4809146019091470101966B
:100A1000909347018093460180917A00806480938F
:100A20007A0080E41CC082E791E00E945D0880911A
:100A30002C0190912D01E0917201F091730191834D
:100A4000808380E791E06EE671E042E751E00E942A
:100A5000D8071092470110924601EB9A80E282B9C2
:100A6000FF91EF91BF91AF919F918F917F916F9186
:100A70005F914F913F912F910F900BBE0F900FBE42
:100A80000F901F9018951F920F920FB60F920BB6F2
:100A90000F9211242F933F934F935F936F937F9304
:100AA0008F939F93AF93BF93EF93FF93DF93CF9376
:100AB00000D0CDB7DEB74A9923C080E090E061E076
:100AC00070E00E94D20087E390E00E94DD000E9467
:100AD000410280E791E06EE671E0AE014F5F5F4F4B
:100AE0000E94F10789819A810E94410981E090E08A
:100AF00060E070E00E94D20084E690E00E94DD0099
:100B00000F900F90CF91DF91FF91EF91BF91AF9137
:100B10009F918F917F916F915F914F913F912F9115
:100B20000F900BBE0F900FBE0F901F901895FF9265
:100B30000F931F93CF93DF93F89483E00E943107C4
:100B400081E060E00E94090780E060E00E94C80741
:100B500080E091E00E945C0788EE93E00E94DD0057
:100B600078949FEF91B994B980EB8AB99DB910BA86
:100B7000209136013091370189E190E0821B930B7F
:100B8000880F991F90936B0180936A012091360121
:100B90003091370182E390E0821B930B880F991FFD
:100BA0009093690180936801F8940E94BF000E94AD
:100BB000A80084B5836884BD82E085BD80E487BDDC
:100BC0000E94FE0380E791E06EE671E00E94D1078B
:100BD000F89481E060E00E94090780E060E00E94F4
:100BE000C8078CE091E00E945C07789440E8F42EFE
:100BF00000E11EE08091540190915501019741F46C
:100C000081E090E060E070E00E94D200F2B811C094
:100C10008091520190915301019759F480915001B4
:100C200090915101892B29F4109255011092540191
:100C300002B9C0915001D0915101C130D10569F480
:100C400080E791E06EE671E00E943308892B29F479
:100C5000D0934901C093480112B980914801909105
:100C60004901019739F6F89460916401709165012A
:100C70008091620190916301209160013091610146
:100C800040915E0150915F01860F971F820F931F65
:100C9000840F951F90935D0180935C0180E090E04C
:100CA00061E070E00E94D20081E060E00E940907EC
:100CB00080E060E00E94C80789E191E00E945C0743
:100CC00087E060E00E94C80780915A0190915B0123
:100CD00062E070E00E946A078BE060E00E94C80753
:100CE00081E291E00E945C078DE060E00E94C8070D
:100CF00080E791E06EE671E00E94330862E070E008
:100D00000E946A0780E061E00E94C80784E291E0E7
:100D10000E945C0781E061E00E94C80780915E014B
:100D200090915F0162E070E00E946A0784E061E0F8
:100D30000E94C80786E291E00E945C0785E061E0BE
:100D40000E94C807809160019091610162E070E0AB
:100D50000E946A0788E061E00E94C80788E291E08B
:100D60000E945C0789E061E00E94C80780916201EF
:100D70009091630162E070E00E946A078CE061E09C
:100D80000E94C8078AE291E00E945C078DE061E062
:100D90000E94C807809164019091650162E070E053
:100DA0000E946A07109249011092480180915001F7
:100DB00090915101892B09F0FFCF78941BCF87B117
:100DC000807F87B9459A469881E08A95F1F721E0BE
:100DD000479A822F8A95F1F786B18295807F922F6C
:100DE0009A95F1F74798922F9A95F1F7479A922F93
:100DF0009A95F1F796B1922F9A95F1F74798922F1D
:100E00009A95F1F787FDE4CF459887B18F6087B950
:100E10000895382F662311F4469801C0469A21E0C0
:100E2000822F8A95F1F7479A88B1932F92959F70F8
:100E3000807F982B98B9822F8A95F1F74798822F57
:100E40008A95F1F7479A88B13F70807F832B88B9E4
:100E5000822F8A95F1F747982A95F1F70E94DF06CD
:100E600008951F93182F8CE49DE10197F1F787B146
:100E70008F6087B93F9A3E9A3D9A88B1807F88B942
:100E800047984598469881E0982F9A95F1F7479AA8
:100E9000419A982F9A95F1F747988A95F1F70E9411
:100EA000DF06812F8C6060E00E94090788E260E025
:100EB0000E9409071F910895CF93DF93EC0104C0AE
:100EC00061E00E940907219688818823C9F7DF9194
:100ED000CF910895EF92FF920F931F93DF93CF93DB
:100EE00000D000D00F92CDB7DEB79C018B01FE0180
:100EF000319685E0DF011D928A95E9F7FE0135966E
:100F00000DC0C9016AE070E00E946D088083C901CC
:100F10006AE070E00E946D089B0131972115310550
:100F200081F7BFEF0F3F1B0779F420E030E0AE01FF
:100F30004F5F5F4F02C02F5F3F4FFA01E20FF31F79
:100F400080818823C1F304C025E030E0201B310BF1
:100F50007E010894E11CF11CE20EF31E890109C018
:100F6000F70181917F01805D61E00E9409070F5FB9
:100F70001F4F05301105A4F30F900F900F900F90A5
:100F80000F90CF91DF911F910F91FF90EF900895F7
:100F9000883230F461118064806860E00E94090743
:100FA0000895FC01DB01118210821D921C920895AC
:100FB000CF93DF939C01DB01FA01CD91DC91119776
:100FC00080819181209719F09C838B8303C0E90174
:100FD00099838883808191818D939C93DF91CF91B8
:100FE0000895CF93DF93DC01EB01FA018D919C9181
:100FF000119791838083ED91FC911197309729F09F
:101000008381948111969C938E938D919C91892BD1
:1010100011F419821882DF91CF910895DF93CF9355
:1010200000D00F92CDB7DEB7FC01DE011196208112
:101030003181C901FC0183E001900D928150E1F7FB
:1010400069817A818B8190E00F900F900F90CF9102
:10105000DF910895FC0120E080819181892B09F4C2
:1010600021E0822F0895FC010190F081E02D20E025
:1010700030E005C02F5F3F4F0380F481E02D3097B3
:10108000C9F7C90108950F931F93CF93DF93EC0124
:101090008B0107C08381948199838883CF010E944B
:1010A0004109E881F9813097A9F7F801118210828E
:1010B000DF91CF911F910F9108950F931F938C0192
:1010C00085E090E00E949408FC01D8018D939C93E8
:1010D000148213821F910F91089597FB092E072602
:1010E0000AD077FD04D00CD006D000201AF47095F9
:1010F00061957F4F0895F6F7909581959F4F0895DC
:10110000AA1BBB1B51E107C0AA1FBB1FA617B7072D
:1011100010F0A61BB70B881F991F5A95A9F7809549
:101120009095BC01CD010895CF93DF93BC0182302F
:10113000910510F462E070E0A0917601B091770122
:10114000ED01E0E0F0E040E050E021C088819981CD
:101150008617970769F48A819B81309719F09383EA
:10116000828304C09093770180937601FE0134C09E
:101170006817790738F44115510519F08417950758
:1011800008F4AC01FE018A819B819C01E901209752
:10119000E9F641155105A9F1CA01861B970B049781
:1011A00008F4BA01E0E0F0E02AC08D919C9111971B
:1011B00084179507F9F46417750781F412968D91D9
:1011C0009C911397309719F09383828304C0909376
:1011D000770180937601FD0132964FC0CA01861BCC
:1011E000970BFD01E80FF91F6193719302978D939F
:1011F0009C9343C0FD01828193819C01D90110978A
:10120000A1F68091740190917501892B41F4809130
:101210004001909141019093750180937401409138
:101220004201509143014115510541F44DB75EB75C
:1012300080913E0190913F01481B590B2091740110
:101240003091750124173507B0F4CA01821B930B46
:101250008617970780F0AB014E5F5F4F84179507A5
:1012600050F0420F531F5093750140937401F901E0
:101270006193719302C0E0E0F0E0CF01DF91CF9184
:101280000895CF93DF93009709F450C0EC012297A3
:101290001B821A82A0917601B0917701109709F113
:1012A00040E050E0AC17BD0708F1BB83AA83FE0104
:1012B00021913191E20FF31FAE17BF0779F48D91A1
:1012C0009C911197280F391F2E5F3F4F3983288338
:1012D00012968D919C9113979B838A83411551059A
:1012E00071F4D0937701C093760120C012968D914E
:1012F0009C911397AD01009711F0DC01D3CFFA0157
:10130000D383C28321913191E20FF31FCE17DF0700
:1013100069F488819981280F391F2E5F3F4FFA01A8
:10132000318320838A819B8193838283DF91CF9154
:061330000895F894FFCFC0
:101336005374617274696E672E2E2E005265616455
:101346007920746F2052756E00536F727465643A1B
:1013560000513A004200570053004100D007D00721
:101366000200010001000800A2032003AF002000D4
:0413760078010000FA
:00000001FF
