:100000000C944C000C946B000C94C0000C946B008E
:100010000C948E000C946B000C946B000C946B0091
:100020000C946B000C946B000C946B000C946B00A4
:100030000C946B000C946B000C946B000C946B0094
:100040000C946B000C946B000C946B000C946B0084
:100050000C946B000C946B000C946B000C946B0074
:100060000C946B000C946B000C946B000C946B0064
:100070000C946B000C946B000C946B000C946B0054
:100080000C946B000C946B000C946B000C946B0044
:100090000C946B000C946B0011241FBECFEFD0E2C8
:1000A000DEBFCDBF11E0A0E0B1E0EEECF4E000E097
:1000B0000BBF02C007900D92A030B107D9F711E035
:1000C000A0E0B1E001C01D92A530B107E1F70E94A8
:1000D00032010C9465020C940000672B11F080EF44
:1000E00005C0892B11F084EF01C088EF85B9089510
:1000F000F8948AE08DBB8CEC80936900089584B5F8
:10010000836884BDEEE6F0E080818260808382E0D7
:1001100085BD80E887BD089587BD08951F920F9221
:100120000FB60F920BB60F9211242F933F934F935C
:100130005F936F937F938F939F93AF93BF93EF934F
:10014000FF9380E090E061E070E00E946D0082E04B
:1001500082B91092030110920201FF91EF91BF91B9
:10016000AF919F918F917F916F915F914F913F914F
:100170002F910F900BBE0F900FBE0F901F901895F0
:100180001F920F920FB60F920BB60F9211242F935E
:100190003F934F935F936F937F938F939F93AF930F
:1001A000BF93EF93FF938091020190910301892BFC
:1001B00069F080E090E061E070E00E946D0081E015
:1001C00082B9109203011092020113C080910201C2
:1001D00090910301892B69F481E090E060E070E088
:1001E0000E946D0081E090E09093030180930201F2
:1001F00012B8FF91EF91BF91AF919F918F917F9135
:100200006F915F914F913F912F910F900BBE0F9087
:100210000FBE0F901F9018959C0180918100816006
:10022000809381008091810088608093810088EEB6
:1002300093E090938900809388001092850010923B
:100240008400B19A80E090E004C0B19BFECFB19AE7
:10025000019682179307CCF3809181008E7F809363
:10026000810008958FEF81B984B91DB88091810014
:100270008160809381000E947F00F8948AE08DBBAA
:100280008CEC8093690083E00E949E01789481E069
:1002900060E00E947601FFCF87B1807F87B9459AE1
:1002A000469881E08A95F1F721E0479A822F8A9556
:1002B000F1F786B18295807F922F9A95F1F7479852
:1002C000922F9A95F1F7479A922F9A95F1F796B156
:1002D000922F9A95F1F74798922F9A95F1F787FD0B
:1002E000E4CF459887B18F6087B90895382F66238A
:1002F00011F4469801C0469A21E0822F8A95F1F7C1
:10030000479A88B1932F92959F70807F982B98B9C8
:10031000822F8A95F1F74798822F8A95F1F7479AAD
:1003200088B13F70807F832B88B9822F8A95F1F73F
:1003300047982A95F1F70E944C0108951F93182FB2
:100340008CE49DE10197F1F787B18F6087B93F9AFF
:100350003E9A3D9A88B1807F88B9479845984698DB
:1003600081E0982F9A95F1F7479A419A982F9A959C
:10037000F1F747988A95F1F70E944C01812F8C6024
:1003800060E00E94760188E260E00E9476011F91A1
:100390000895CF93DF93EC0104C061E00E947601E1
:1003A000219688818823C9F7DF91CF910895EF9234
:1003B000FF920F931F93DF93CF9300D000D00F9243
:1003C000CDB7DEB79C018B01FE01319685E0DF01E0
:1003D0001D928A95E9F7FE0135960DC0C9016AE0C4
:1003E00070E00E943E028083C9016AE070E00E94D2
:1003F0003E029B0131972115310581F7BFEF0F3F79
:100400001B0779F420E030E0AE014F5F5F4F02C080
:100410002F5F3F4FFA01E20FF31F80818823C1F362
:1004200004C025E030E0201B310B7E010894E11C64
:10043000F11CE20EF31E890109C0F70181917F01D1
:10044000805D61E00E9476010F5F1F4F053011054E
:10045000A4F30F900F900F900F900F90CF91DF911A
:100460001F910F91FF90EF900895883230F4611141
:100470008064806860E00E947601089597FB092EF1
:1004800007260AD077FD04D00CD006D000201AF43D
:10049000709561957F4F0895F6F7909581959F4FE0
:1004A0000895AA1BBB1B51E107C0AA1FBB1FA617BB
:1004B000B70710F0A61BB70B881F991F5A95A9F70D
:0E04C00080959095BC01CD010895F894FFCF72
:00000001FF
