:100000000C944C000C946B000C946B000C946B00E3
:100010000C946B000C946B000C946B000C946B00B4
:100020000C946B000C946B000C946B000C946B00A4
:100030000C946B000C946B000C946B000C946B0094
:100040000C946B000C946B000C946B000C946B0084
:100050000C946B000C946B000C946B000C946B0074
:100060000C946B000C946B000C946B000C946B0064
:100070000C946B000C946D000C946B000C946B0052
:100080000C946B000C946B000C946B000C946B0044
:100090000C946B000C946B0011241FBECFEFD0E2C8
:1000A000DEBFCDBF11E0A0E0B1E0E6E5F4E000E0A6
:1000B0000BBF02C007900D92A630B107D9F711E02F
:1000C000A6E0B1E001C01D92AD30B107E1F70E949A
:1000D000CC000C9429020C9400001F920F920FB6D2
:1000E0000F920BB60F9211248F939F93EF93FF9370
:1000F000EAE7F0E0808180648083809178009091CD
:1001000079009093090180930801FF91EF919F91ED
:100110008F910F900BBE0F900FBE0F901F901895F0
:10012000F894AAE7B0E08C9180688C93ECE7F0E05B
:100130008081806480838081816080838C918064F1
:100140008C938C9188608C93789408959C01809115
:10015000810081608093810080918100886080931C
:10016000810088EE93E0909389008093880010923C
:10017000850010928400B19A80E090E004C0B19BA9
:10018000FECFB19A019682179307CCF3809181003C
:100190008E7F8093810008958BEF8AB90E94900032
:1001A000F89483E00E94620181E060E00E943A01DD
:1001B00078948AE090E090930C0180930B0188EE94
:1001C00093E00E94A600F8948091080190910901A3
:1001D00090930C0180930B0180E060E00E94F90194
:1001E00080E091E00E948D0186E060E00E94F901CC
:1001F00080910B0190910C0164E070E00E949B01E2
:1002000088EC90E00E94A60078948091060190917D
:100210000701892BA1F21092070110920601CFCF9E
:1002200087B1807F87B9459A469881E08A95F1F732
:1002300021E0479A822F8A95F1F786B18295807FD7
:10024000922F9A95F1F74798922F9A95F1F7479A3E
:10025000922F9A95F1F796B1922F9A95F1F74798C8
:10026000922F9A95F1F787FDE4CF459887B18F607B
:1002700087B90895382F662311F4469801C0469A2D
:1002800021E0822F8A95F1F7479A88B1932F9295B2
:100290009F70807F982B98B9822F8A95F1F74798A5
:1002A000822F8A95F1F7479A88B13F70807F832B20
:1002B00088B9822F8A95F1F747982A95F1F70E941D
:1002C000100108951F93182F8CE49DE10197F1F719
:1002D00087B18F6087B93F9A3E9A3D9A88B1807FF7
:1002E00088B947984598469881E0982F9A95F1F7F4
:1002F000479A419A982F9A95F1F747988A95F1F77E
:100300000E941001812F8C6060E00E943A0188E217
:1003100060E00E943A011F910895CF93DF93EC01B2
:1003200004C061E00E943A01219688818823C9F7C0
:10033000DF91CF910895EF92FF920F931F93DF9378
:10034000CF9300D000D00F92CDB7DEB79C018B01C8
:10035000FE01319685E0DF011D928A95E9F7FE01E5
:1003600035960DC0C9016AE070E00E9402028083E8
:10037000C9016AE070E00E9402029B0131972115D9
:10038000310581F7BFEF0F3F1B0779F420E030E024
:10039000AE014F5F5F4F02C02F5F3F4FFA01E20F88
:1003A000F31F80818823C1F304C025E030E0201BC7
:1003B000310B7E010894E11CF11CE20EF31E890151
:1003C00009C0F70181917F01805D61E00E943A01DF
:1003D0000F5F1F4F05301105A4F30F900F900F9082
:1003E0000F900F90CF91DF911F910F91FF90EF90A1
:1003F0000895883230F461118064806860E00E9462
:100400003A01089597FB092E07260AD077FD04D0FC
:100410000CD006D000201AF4709561957F4F089596
:10042000F6F7909581959F4F0895AA1BBB1B51E14C
:1004300007C0AA1FBB1FA617B70710F0A61BB70B54
:10044000881F991F5A95A9F780959095BC01CD01F9
:060450000895F894FFCFAF
:060456004144433A00009E
:00000001FF
