:100000000C944C000C9463000C9463000C946300FB
:100010000C9463000C9463000C9463000C946300D4
:100020000C9463000C9463000C9463000C946300C4
:100030000C9463000C9463000C9463000C946300B4
:100040000C9463000C9463000C9463000C946300A4
:100050000C9463000C9463000C9463000C94630094
:100060000C9463000C9463000C9463000C94630084
:100070000C9463000C9463000C9463000C94630074
:100080000C9463000C9463000C9463000C94630064
:100090000C9463000C94630011241FBECFEFD0E2D8
:1000A000DEBFCDBF11E0A0E0B1E0EEEFF3E000E095
:1000B0000BBF02C007900D92A234B107D9F70E947E
:1000C0008B000C94FD010C9400009C018091810038
:1000D000816080938100809181008860809381009D
:1000E00088EE93E0909389008093880010928500B9
:1000F00010928400B19A80E090E004C0B19BFECFE2
:10010000B19A019682179307CCF3809181008E7F7C
:10011000809381000895CF93DF9383E00E9436019E
:1001200081E060E00E940E0180E091E00E946101A8
:1001300080E061E00E94CD018AE091E00E946101CF
:10014000C0E0D0E089E061E00E94CD01CE0163E033
:1001500070E00E946F018CE061E00E94CD0183E1BC
:1001600091E00E94610188EE93E00E946500219673
:10017000C336D10539F781E060E00E940E0185E1C8
:1001800091E00E94610180E061E00E94CD0181E286
:1001900091E00E94610188EA91E60E94650081E099
:1001A00060E00E940E0188E291E00E94610180E01F
:1001B00061E00E94CD0184E391E00E94610180E052
:1001C00090E0DF91CF91089587B1807F87B9459AFC
:1001D000469881E08A95F1F721E0479A822F8A9527
:1001E000F1F786B18295807F922F9A95F1F7479823
:1001F000922F9A95F1F7479A922F9A95F1F796B127
:10020000922F9A95F1F74798922F9A95F1F787FDDB
:10021000E4CF459887B18F6087B90895382F66235A
:1002200011F4469801C0469A21E0822F8A95F1F791
:10023000479A88B1932F92959F70807F982B98B999
:10024000822F8A95F1F74798822F8A95F1F7479A7E
:1002500088B13F70807F832B88B9822F8A95F1F710
:1002600047982A95F1F70E94E40008951F93182FEC
:100270008CE49DE10197F1F787B18F6087B93F9AD0
:100280003E9A3D9A88B1807F88B9479845984698AC
:1002900081E0982F9A95F1F7479A419A982F9A956D
:1002A000F1F747988A95F1F70E94E400812F8C605E
:1002B00060E00E940E0188E260E00E940E011F9142
:1002C0000895CF93DF93EC0104C061E00E940E011A
:1002D000219688818823C9F7DF91CF910895EF9205
:1002E000FF920F931F93DF93CF9300D000D00F9214
:1002F000CDB7DEB79C018B01FE01319685E0DF01B1
:100300001D928A95E9F7FE0135960DC0C9016AE094
:1003100070E00E94D6018083C9016AE070E00E940B
:10032000D6019B0131972115310581F7BFEF0F3FB2
:100330001B0779F420E030E0AE014F5F5F4F02C051
:100340002F5F3F4FFA01E20FF31F80818823C1F333
:1003500004C025E030E0201B310B7E010894E11C35
:10036000F11CE20EF31E890109C0F70181917F01A2
:10037000805D61E00E940E010F5F1F4F0530110587
:10038000A4F30F900F900F900F900F90CF91DF91EB
:100390001F910F91FF90EF900895883230F4611112
:1003A0008064806860E00E940E01089597FB092E2A
:1003B00007260AD077FD04D00CD006D000201AF40E
:1003C000709561957F4F0895F6F7909581959F4FB1
:1003D0000895AA1BBB1B51E107C0AA1FBB1FA6178C
:1003E000B70710F0A61BB70B881F991F5A95A9F7DE
:0E03F00080959095BC01CD010895F894FFCF43
:1003FE00436F6E677261747320004C6F6164696E37
:10040E00672000250048656C6C6F20776F726C64F6
:10041E0000427920506174002020202065587472AB
:10042E00656D65002020456C656374726F6E69633F
:02043E00730049
:00000001FF
