:100000000C944C000C946B000C946B000C948200CC
:100010000C946B000C946B000C946B000C946B00B4
:100020000C946B000C946B000C946B000C946B00A4
:100030000C946B000C946B000C946B000C946B0094
:100040000C946B000C946B000C946B000C946B0084
:100050000C946B000C946B000C946B000C946B0074
:100060000C946B000C946B000C946B000C946B0064
:100070000C946B000C949B000C946B000C946B0024
:100080000C946B000C946B000C946B000C946B0044
:100090000C946B000C946B0011241FBECFEFD0E2C8
:1000A000DEBFCDBF11E0A0E0B1E0ECE3F4E000E0A2
:1000B0000BBF02C007900D92A030B107D9F711E035
:1000C000A0E0B1E001C01D92A330B107E1F70E94AA
:1000D000D9000C941C020C940000F894EA9AE9E60A
:1000E000F0E0808180638083EAE7F0E080818068CF
:1000F0008083808188608083ECE7F0E08081806687
:10010000808308951F920F920FB60F920BB60F9235
:1001100011248F93EF93FF93EAE7F0E080818064EE
:100120008083FF91EF918F910F900BBE0F900FBEC8
:100130000F901F9018951F920F920FB60F921124D7
:100140008F939F93809179008093020181E090E0EA
:1001500090930101809300019F918F910F900FBEAA
:100160000F901F9018959C01809181008160809371
:1001700081008091810088608093810088EE93E007
:1001800090938900809388001092850010928400DB
:10019000B19A80E090E004C0B19BFECFB19A019685
:1001A00082179307CCF3809181008E7F809381002A
:1001B000089583E00E94550181E060E00E942D01D6
:1001C00084E060E00E94EC018CEB94E064E070E07D
:1001D0000E948E018FEF81B910BA789480917A00D5
:1001E000806480937A008FE082B9809100019091C1
:1001F0000101892BD1F38091020182B91092010192
:1002000010920001F2CF87B1807F87B9459A469856
:1002100081E08A95F1F721E0479A822F8A95F1F7DC
:1002200086B18295807F922F9A95F1F74798922F09
:100230009A95F1F7479A922F9A95F1F796B1922FE6
:100240009A95F1F74798922F9A95F1F787FDE4CFA9
:10025000459887B18F6087B90895382F662311F4C8
:10026000469801C0469A21E0822F8A95F1F7479A75
:1002700088B1932F92959F70807F982B98B9822F89
:100280008A95F1F74798822F8A95F1F7479A88B1B6
:100290003F70807F832B88B9822F8A95F1F747982A
:1002A0002A95F1F70E94030108951F93182F8CE4FB
:1002B0009DE10197F1F787B18F6087B93F9A3E9A28
:1002C0003D9A88B1807F88B947984598469881E0E3
:1002D000982F9A95F1F7479A419A982F9A95F1F7A6
:1002E00047988A95F1F70E940301812F8C6060E0A6
:1002F0000E942D0188E260E00E942D011F91089567
:10030000CF93DF93EC0104C061E00E942D012196A0
:1003100088818823C9F7DF91CF910895EF92FF92EA
:100320000F931F93DF93CF9300D000D00F92CDB7E0
:10033000DEB79C018B01FE01319685E0DF011D9245
:100340008A95E9F7FE0135960DC0C9016AE070E0B3
:100350000E94F5018083C9016AE070E00E94F50106
:100360009B0131972115310581F7BFEF0F3F1B0727
:1003700079F420E030E0AE014F5F5F4F02C02F5FA5
:100380003F4FFA01E20FF31F80818823C1F304C0BD
:1003900025E030E0201B310B7E010894E11CF11CAC
:1003A000E20EF31E890109C0F70181917F01805D92
:1003B00061E00E942D010F5F1F4F05301105A4F36E
:1003C0000F900F900F900F900F90CF91DF911F9192
:1003D0000F91FF90EF900895883230F4611180649E
:1003E000806860E00E942D01089597FB092E072682
:1003F0000AD077FD04D00CD006D000201AF47095F6
:1004000061957F4F0895F6F7909581959F4F0895D8
:10041000AA1BBB1B51E107C0AA1FBB1FA617B7072A
:1004200010F0A61BB70B881F991F5A95A9F7809546
:0C0430009095BC01CD010895F894FFCF19
:00000001FF
