:100000000C944C000C9463000C9463000C946300FB
:100010000C9463000C9463000C9463000C946300D4
:100020000C9463000C9463000C9463000C946300C4
:100030000C9463000C9463000C9463000C946300B4
:100040000C9463000C9463000C9463000C946300A4
:100050000C9463000C9463000C9463000C94630094
:100060000C9463000C9463000C9463000C94630084
:100070000C9463000C9463000C9463000C94630074
:100080000C9463000C9463000C9463000C94630064
:100090000C9463000C94630011241FBECFEFD0E2D8
:1000A000DEBFCDBF11E0A0E0B1E0E8E6F1E000E0A6
:1000B0000BBF02C007900D92A030B107D9F70E9484
:1000C00086000C94B2000C9400009C018091810089
:1000D00088608093810088EE93E0909389008093FC
:1000E0008800109285001092840080916F008260D9
:1000F00080936F00B19A80E090E004C0B19BFECF86
:10010000B19A019682179307CCF308950F931F932A
:100110008FEF81B91AB8809181008160809381004E
:1001200040E050E001E012E002C040E050E089B160
:1001300090E09C012078307087FD08C08EE190E04F
:100140000E94650002B941E050E0F1CF203831054E
:1001500071F74130510549F78EE190E00E9465004A
:0801600012B9E3CFF894FFCFC0
:00000001FF
