:100000000C944C000C946B000C94B4000C94FF0006
:100010000C946B000C946B000C946B000C946B00B4
:100020000C946B000C946B000C946B000C946B00A4
:100030000C946B000C946B000C946B000C946B0094
:100040000C946B000C946B000C946B000C946B0084
:100050000C946B000C946B000C946B000C946B0074
:100060000C946B000C946B000C946B000C946B0064
:100070000C946B000C9418010C946B000C946B00A6
:100080000C946B000C946B000C946B000C946B0044
:100090000C946B000C946B0011241FBECFEFD0E2C8
:1000A000DEBFCDBF11E0A0E0B1E0E6EAF2E000E0A3
:1000B0000BBF02C007900D92A030B107D9F711E035
:1000C000A0E0B1E001C01D92A530B107E1F70E94A8
:1000D000A4000C9451010C940000672B11F080EFE8
:1000E00005C0892B11F084EF01C088EF81BB089512
:1000F000F894E99AE9E6F0E080818C6080830895C5
:1001000084B5836884BDEEE6F0E080818260808300
:1001100082E085BD80E887BD089587BD0895F89485
:10012000EA9AE9E6F0E0808180638083EAE7F0E024
:10013000808180688083808188608083ECE7F0E044
:1001400080818066808308958FEF81B980BB84B9F8
:100150001DB8809181008160809381000E948000A1
:100160000E948F007894FFCF1F920F920FB60F92CC
:100170000BB60F9211242F933F934F935F936F937E
:100180007F938F939F93AF93BF93EF93FF9381E000
:1001900082B98091020190910301892B59F080E08E
:1001A00090E061E070E00E946D00109203011092F7
:1001B000020112C08091020190910301892B61F428
:1001C00081E090E060E070E00E946D0081E090E0EE
:1001D0009093030180930201FF91EF91BF91AF9142
:1001E0009F918F917F916F915F914F913F912F914F
:1001F0000F900BBE0F900FBE0F901F9018951F927F
:100200000F920FB60F920BB60F9211248F93EF93AC
:10021000FF93EAE7F0E0808180648083FF91EF91B3
:100220008F910F900BBE0F900FBE0F901F901895DF
:100230001F920F920FB60F9211248F939F9380916C
:1002400079008093040181E090E090930101809314
:1002500000019F918F910F900FBE0F901F901895E6
:100260009C018091810088608093810088EE93E0FA
:1002700090938900809388001092850010928400EA
:1002800080916F00826080936F00B19A80E090E06F
:1002900004C0B19BFECFB19A019682179307CCF3AD
:0602A0000895F894FFCF61
:00000001FF
