:100000000C944C000C946B000C94A4000C946B00AA
:100010000C946B000C946B000C946B000C946B00B4
:100020000C946B000C946B000C946B000C946B00A4
:100030000C946B000C946B000C946B000C946B0094
:100040000C946B000C946B000C946B000C946B0084
:100050000C946B000C946B000C946B000C946B0074
:100060000C946B000C946B000C946B000C946B0064
:100070000C946B000C946B000C946B000C946B0054
:100080000C946B000C946B000C946B000C946B0044
:100090000C946B000C946B0011241FBECFEFD0E2C8
:1000A000DEBFCDBF11E0A0E0B1E0E2EEF1E000E0A4
:1000B0000BBF02C007900D92A030B107D9F711E035
:1000C000A0E0B1E001C01D92A530B107E1F70E94A8
:1000D0008D000C94EF000C940000672B11F080EF62
:1000E00005C0892B11F084EF01C088EF81BB089512
:1000F000F894E99AE9E6F0E080818C6080830895C5
:1001000084B5836884BDEEE6F0E080818260808300
:1001100082E085BD80E887BD08958FEF81B980BBFF
:1001200084B91DB8809181008160809381000E9414
:100130008000F894E99A809169008C60809369004E
:100140007894FFCF87BD08951F920F920FB60F923C
:100150000BB60F9211242F933F934F935F936F939E
:100160007F938F939F93AF93BF93EF93FF9381E020
:1001700082B98091020190910301892B59F080E0AE
:1001800090E061E070E00E946D0010920301109217
:10019000020112C08091020190910301892B61F448
:1001A00081E090E060E070E00E946D0081E090E00E
:1001B0009093030180930201FF91EF91BF91AF9162
:1001C0009F918F917F916F915F914F913F912F916F
:1001D0000F900BBE0F900FBE0F901F901895F894C4
:0201E000FFCF4F
:00000001FF
