:100000000C944C000C946B000C946B000C946B00E3
:100010000C94A2000C946B000C946B000C946B007D
:100020000C946B000C946B000C946B000C946B00A4
:100030000C946B000C946B000C946B000C946B0094
:100040000C946B000C946B000C946B000C946B0084
:100050000C946B000C946B000C946B000C946B0074
:100060000C946B000C946B000C946B000C946B0064
:100070000C946B000C946B000C946B000C946B0054
:100080000C946B000C946B000C946B000C946B0044
:100090000C946B000C946B0011241FBECFEFD0E2C8
:1000A000DEBFCDBF11E0A0E0B1E0EEE3F2E000E0A2
:1000B0000BBF02C007900D92A230B107D9F711E033
:1000C000A2E0B1E001C01D92A830B107E1F70E94A3
:1000D000D9000C941D010C940000EB9AE9E6F0E0C5
:1000E0008081806C8083089584B5836884BDEEE64A
:1000F000F0E080818260808382E085BD80E887BDFA
:100100000895EA9AE9E6F0E0808180638083EAE777
:10011000F0E0808180688083808188608083ECE764
:10012000F0E0808180648083089587BD0895672B07
:1001300011F080EF05C0892B11F084EF01C088EF2A
:1001400085B908951F920F920FB60F9211248F93C5
:100150009F9382E090E090930101809300019F9132
:100160008F910F900FBE0F901F9018959C01F894DF
:100170008091810088608093810088EE93E0909365
:1001800089008093880010928500109284008091ED
:100190006F00826080936F00B19A80E090E004C0AD
:1001A000B19BFECFB19A019682179307CCF3789456
:1001B00008950F931F93CF93DF939FEF91B987EF2C
:1001C0008AB994B980918100816080938100F8940C
:1001D000EB9A80916900806C80936900789402E0CA
:1001E00011E0C0910001D0910101C130D10519F099
:1001F0002297B9F712C080910401909105010197EF
:1002000081F381E090E060E070E00E949700D0937D
:100210000501C093040112B9E4CF80E090E061E0F1
:1002200070E00E949700109205011092040102B93B
:0E0230008EE190E00E94B600D4CFF894FFCF8C
:02023E000100BD
:00000001FF
