:100000000C944C000C9463000C9463000C946300FB
:100010000C9463000C9463000C9463000C946300D4
:100020000C9463000C9463000C9463000C946300C4
:100030000C9463000C9463000C9463000C946300B4
:100040000C9463000C9463000C9463000C946300A4
:100050000C9463000C9463000C9463000C94630094
:100060000C9463000C9463000C9463000C94630084
:100070000C9463000C9463000C9463000C94630074
:100080000C9463000C9463000C9463000C94630064
:100090000C9463000C94630011241FBECFEFD0E2D8
:1000A000DEBFCDBF11E0A0E0B1E0ECE3F1E000E0A5
:1000B0000BBF02C007900D92A030B107D9F70E9484
:1000C00086000C949C000C9400009C01809181009F
:1000D00088608093810088EE93E0909389008093FC
:1000E0008800109285001092840080916F008260D9
:1000F00080936F00B19A80E090E004C0B19BFECF86
:10010000B19A019682179307CCF308950F931F932A
:100110008FEF81B98091810081608093810001E03F
:1001200012E002B980ED97E00E94650012B988EBF9
:0C0130009BE00E946500F5CFF894FFCF23
:00000001FF
